:1001090000000000000000007F0808087F000E15AD
:10011900151508007E0102007E0102000E11110E64
:0A012900007D00000000000000004F
:04000300020C000AE1
:0200D300AD0777
:1000D500E4FBEBC394087480948050237E00748005
:1000E500A803088006CEA2E713CE13D8F8FFEDF5D6
:1000F50082EF558224FF92B4D2B6C2B60B80D3D21A
:03010500B5C2B5CB
:0101080022D4
:10015B00AA07AF051200D3AF02A80774800880026C
:10016B00C313D8FCF4F5907F027E0012017D7590CD
:02017B00FF2261
:10009A00C2B6C2B5E4F50AC3E50A9408748094802E
:1000AA005014E50A250B90010993FD7C00AF0A1252
:1000BA00015B050A80E1120192D3E50B9421748059
:0900CA00948040D0E4F50B80CBDA
:03000B00020133BC
:04013300C0E0C0D098
:10013700758C3C758AB00509E50970020508C394FA
:0F0147000AE50894004008750800750900050BCB
:05015600D0D0D0E03222
:10017D00EF1FAC0670011E4C600A7D027CEFDCFEA9
:04018D00DDFC80EC29
:01019100224B
:10019200758901C28DD28C758A18758CFCD2A9D250
:0201A200AF228A
:0300000002000EED
:0C000E00787FE4F6D8FD75810D020055E6
:10001A0002009AE493A3F8E493A34003F68001F262
:10002A0008DFF48029E493A3F85407240CC8C333E7
:10003A00C4540F4420C8834004F456800146F6DFB6
:10004A00E4800B0102040810204080900003E47E43
:10005A00019360BCA3FF543F30E509541FFEE493AB
:10006A00A360010ECF54C025E060A840B8E493A372
:10007A00FAE493A3F8E493A3C8C582C8CAC583CA9D
:10008A00F0A3C8C582C8CAC583CADFE9DEE780BE55
:0100070000F8
:00000001FF
