:030000000204A651
:0C04A600787FE4F6D8FD75812502018CFA
:1004570050415353574F5244004642496F70656E9F
:07046700004552524F520004
:10018C001204837BFF7A0479577D017F011203F8F7
:10019C001200038F25E5256036D3940A7480948071
:1001AC00502DC3E5229404748094805022AE23AF6A
:1001BC00247C007D0A12026A8E238F24E52575F0BB
:1001CC000A84E5F02524F524E43523F5230522756E
:1001DC000C04AB24AA237D017F021203D4E5226414
:1001EC000470A0E524B40A27E523B41A227BFF7A15
:1001FC000479607D087F021203F8E4F5227FD07E3B
:10020C000712046E120483E4F523F52402018F7B9C
:10021C00FF7A0479687D087F021203F8E4F5227FE7
:10022C00D07E0712046E120483E4F523F524020138
:01023C008F32
:10046E00EF1FAC0670011E4C600A7D027CEFDCFEB5
:04047E00DDFC80EC35
:010482002257
:06049700C2A58F80D2A770
:08049D007F027EEFDEFEDFFCB2
:0104A5002234
:0A04B200C2A6120497C2A702049D1F
:10041B00CFCDCFCECCCE12027C7C007D0A12027CDB
:04042B00ED2430FF8D
:0A042F00D2A6120497C2A702049D92
:10043900AE07EEFB7A0064017004ED148009EB64E9
:0E044900024A7009ED243F4480FF1204B222E3
:100483007F381204B27F0C1204B27F061204B27FCB
:04049300010204B2AC
:0A04BC00AC03120439AF0402042F50
:0603F8008B088A09890A46
:1003FE00120439E4FDAB08AA09A90A8D827583009F
:0C040E0012023DFF600612042F0D80E971
:01041A0022BF
:0A03A300EF24FFFDEE34FFFC7F0A9B
:0803AD008E0D8F0E8C0F8D10D8
:1003B5007F017E00E4FBEBC39510E50F6480F874C4
:0E03C5008098500AAC0DAD0E12026A0B80E853
:0103D3002207
:0403D4008A0A8B0BFB
:1003D800120439AA0CEAFF7E00D39400748094803A
:0F03E800400D1203A3AC0AAD0B12041B1A80E6E2
:0103F70022E3
:04031C008B828A83C3
:10032000120439C3E58364809480400D7F2B12044E
:100330002F85831685821780107F2D12042FC3E42A
:100340009582F517E49583F516AA15EAFF7E00D38A
:10035000940074809480400D1203A3AC16AD171264
:05036000041B1A80E6F9
:010365002275
:0402D1008A1A8B1BDF
:1002D500120439AA1CEAD39400748094804037EA4A
:1002E50024FFFDE434FFFC7F107E001203ADAC1A41
:1002F500AD1BCFCDCFCECCCE12027CEF540FFEC3BB
:10030500940A74809480EE5004243080022437FFD0
:0603150012042F1A80BF44
:01031B0022BF
:040366008A1F8B203F
:10036A00120439AA21EAFF7E00D394007480948093
:10037A004026EF24FFFDEE34FFFC7F021203ADACF2
:10038A001FAD20CFCDCFCECCCE12027CEF540124AC
:08039A0030FF12042F1A80CD80
:0103A2002238
:10000300E4F5087590FFC2902094137F14FE120448
:100013006E3094FD7F147E0012046E7508042095E3
:10002300147F147E0012046E3095FD7F147E00123F
:10003300046E7508082096147F147E0012046E3037
:1000430096FD7F147E0012046E75080C2097147FB2
:10005300147E0012046E3097FD7F147E0012046E2E
:100063007508107590FFC2912094147F147E0012BE
:10007300046E3094FD7F147E0012046E7508032015
:1000830095147F147E0012046E3095FD7F147E005C
:1000930012046E7508072096147F147E0012046EF6
:1000A3003096FD7F147E0012046E75080B209714A2
:1000B3007F147E0012046E3097FD7F147E001204BD
:1000C3006E75080F7590FFC2922094147F147E0002
:1000D30012046E3094FD7F147E0012046E750802C4
:1000E3002095147F147E0012046E3095FD7F147EDC
:1000F3000012046E7508062096147F147E00120405
:100103006E3096FD7F147E0012046E75080A2097E8
:10011300147F147E0012046E3097FD7F147E00124C
:10012300046E75080E7590FFC2932094147F147E9D
:100133000012046E3094FD7F147E0012046E750865
:10014300012095147F147E0012046E3095FD7F14F8
:100153007E0012046E7508052096147F147E00122B
:10016300046E3096FD7F147E0012046E750809201C
:1001730097147F147E0012046E3097FD7F147E0067
:0801830012046E75080DAF08AF
:01018B002251
:10023D00BB010CE58229F582E5833AF583E0225076
:10024D0006E92582F8E622BBFE06E92582F8E222C0
:0D025D00E58229F582E5833AF583E49322DA
:10026A00EF8DF0A4A8F0CF8CF0A428CE8DF0A42EA8
:02027A00FE2262
:10027C00BC000BBE0029EF8DF084FFADF022E4CC66
:10028C00F875F008EF2FFFEE33FEEC33FCEE9DEC2F
:10029C00984005FCEE9DFE0FD5F0E9E4CEFD22ED75
:1002AC00F8F5F0EE8420D21CFEADF075F008EF2FBF
:1002BC00FFED33FD4007985006D5F0F222C398FDB0
:0502CC000FD5F0EA224D
:00000001FF
