:10000000020288E4FD7F8E120317E50975F00A8469
:10001000C454F0FFE50975F00A84EF7F8C120314D5
:10002000E50A75F00A84C454F0FFE50A75F00A8405
:10003000EF7F88120314E50B75F00A84C454F0FFB7
:10004000E50B75F00A84EF25F0FD7F86120317E5B6
:100050000C75F00A84C454F0FFE50C75F00A84EFC7
:1000600025F0FD7F84120317E50D75F00A84C45452
:10007000F0FFE50D75F00A84EF25F0FD7F82120395
:1000800017E50E75F00A84C454F0FFE50E75F00A0A
:1000900084EF25F0FD7F80120317E50F75F00A84C9
:1000A000C454F0FFE50F75F00A84EF25F0FD7F8A58
:1000B0001203177DC87F8E0203177F8012037A8F89
:1000C00013E513C4540F75F00AA4FFE513540F2F62
:1000D000F50E7F8212037A8F15E515C4540F75F063
:1000E0000AA4FFE515540F2FF50D7F8412037A8FB4
:1000F00014E514C4540F75F00AA4FFE514540F2F2F
:10010000F50C7F8612037A8F10E510C4540F75F03A
:100110000AA4FFE510540F2FF50B7F8812037A8F86
:1001200008E508C4540F75F00AA4FFE508540F2F22
:10013000F50A7F8C12037A8F12E512C4540F75F002
:100140000AA4FFE512540F2FF5097F8A12037A8F54
:1001500011E511C4540F75F00AA4FFE511540F2FD7
:10016000F50F22BB010CE58229F582E5833AF58380
:10017000E0225006E92582F8E622BBFE06E9258248
:10018000F8E222E58229F582E5833AF583E49322B9
:10019000EF8DF0A4A8F0CF8CF0A428CE8DF0A42E83
:1001A000FE22BC000BBE0029EF8DF084FFADF022D3
:1001B000E4CCF875F008EF2FFFEE33FEEC33FCEEE5
:1001C0009DEC984005FCEE9DFE0FD5F0E9E4CEFDD8
:1001D00022EDF8F5F0EE8420D21CFEADF075F008AB
:1001E000EF2FFFED33FD4007985006D5F0F222C304
:1001F00098FD0FD5F0EA2212048C1204C3120003FA
:100200007BFF7A0479C87D017F0112042D7BFF7A80
:100210000479CF7D017F0212042D1200BAE509FB9B
:100220007A00751A027D017F01120409E50AFB7A42
:1002300000751A027D047F01120409E50BFB7A00A8
:10024000751A027D077F01120409E50CFB7A00751F
:100250001A027D017F02120409E50DFB7A00751A6E
:10026000027D047F02120409E50EFB7A00751A0272
:100270007D077F02120409E50FFB7A00751A027DE3
:100280000E7F011204098092787FE4F6D8FD758113
:100290001E0202CF0201F7E493A3F8E493A3400304
:1002A000F68001F208DFF48029E493A3F8540724D0
:1002B0000CC8C333C4540F4420C8834004F4568090
:1002C0000146F6DFE4800B01020408102040809014
:1002D00004B9E47E019360BCA3FF543F30E50954A8
:1002E0001FFEE493A360010ECF54C025E060A84038
:1002F000B8E493A3FAE493A3F8E493A3C8C582C82F
:10030000CAC583CAF0A3C8C582C8CAC583CADFE903
:10031000DEE780BE25F0FDA907E4FBD2B5EBC39470
:10032000087480948050227E007401A80308800520
:10033000C333CE33CED8F9FFE9F582EF558224FFDF
:1003400092B4D2B6C2B60B80D4E4FBEBC39408746B
:1003500080948050227E007401A803088005C33376
:10036000CE33CED8F9FFEDF582EF558224FF92B45B
:10037000D2B6C2B60B80D4C2B522AD07E4F9D2B56D
:10038000430501FBEBC394087480948050227E00E7
:100390007401A803088005C333CE33CED8F9FFED2E
:1003A000F582EF558224FF92B4C2B6D2B60B80D448
:1003B000E4FBEBC39408748094805017D2B6C2B6A5
:1003C00030B40DA8037401088002C333D8FC420185
:1003D0000B80DFC2B5AF0122EF24FFFDEE34FFFC3E
:1003E0007F0A8E1B8F1C8C1D8D1E7F017E00E4FBFF
:1003F000EBC3951EE51D6480F8748098500AAC1B11
:10040000AD1C1201900B80E8228A188B1912046E21
:10041000AA1AEAFF7E00D3940074809480400D12E3
:1004200003D8AC18AD191204501A80E6228B168A34
:1004300017891812046EE4FDAB16AA17A9188D824D
:10044000758300120163FF60061204640D80E922C7
:10045000CFCDCFCECCCE1201A27C007D0A1201A25C
:10046000ED2430FFD2A61204A0C2A70204A6AE0754
:10047000EEFB7A0064017004ED148009EB64024A1B
:100480007009ED243F4480FF1204AF227F3812042C
:10049000AF7F0C1204AF7F061204AF7F010204AFDE
:1004A000C2A58F80D2A77F027EEFDEFEDFFC22C2D4
:1004B000A61204A0C2A70204A607091701080D206E
:1004C000000700C2B5C2B62220202D20202D00201A
:0604D000203A20203A0052
:00000001FF
