:08000000020561C2B5C2B6227F
:10000B0002070B7BFF7A0879B57D0C7F011207F98C
:10001B007BFF7A0879BA7D0C7F021207F9E520FB8A
:10002B007A007518017D107F011207D5E51FFB7A49
:10003B00007518017D107F021207D5C2A3E523645A
:10004B0002700B051FE51F75F0068485F01FE52177
:10005B00640160030201157408251FF806D3E50A35
:10006B00940C748094804003750A01AF0AEF64040A
:10007B00600FEF6406600AEF64096005EF640B70B4
:10008B000DD3E50B941E748094804062805DE50A6D
:10009B0064027027E5095403FF7E00700DD3E50B56
:1000AB00941D7480948040468041EF4E6040D3E5B0
:1000BB000B941C7480948040358030AF0AEF640140
:1000CB00601EEF64036019EF64056014EF64076052
:1000DB000FEF6408600AEF640A6005EF640C700EA2
:1000EB00D3E50B941F748094804003750B01D3E50B
:1000FB000C9417748094804003E4F50CD3E50D94B5
:10010B003C748094804003E4F50DE52164026003A8
:10011B000201DA7408251FF816C3E50A94017480EE
:10012B0094805003750A0CAF0AEF6404600FEF6400
:10013B0006600AEF64096005EF640B7010C3E50BF2
:10014B00940174809480506B750B1E8066E50A6475
:10015B0002702DE5095403FF7E007010C3E50B946C
:10016B000174809480504C750B1D8047EF4E60439B
:10017B00C3E50B9401748094805038750B1C80334D
:10018B00AF0AEF6401601EEF64036019EF64056052
:10019B0014EF6407600FEF6408600AEF640A6005F0
:1001AB00EF640C700EC3E50B9401748094805003C4
:1001BB00750B1FC3E50C9401748094805003750C70
:1001CB0017C3E50D9401748094805003750D3BE5C6
:1001DB000EFB7A007518027D077F021207D5E51F0B
:1001EB0064017015E5226401700F7BFF7A0879BFFB
:1001FB007D017F011207F9800FE509FB7A00751865
:10020B00027D017F011207D5E51F64027015E522FF
:10021B006401700F7BFF7A0879BF7D047F011207A1
:10022B00F9800FE50AFB7A007518027D047F011235
:10023B0007D5E51F64037015E5226401700F7BFF82
:10024B007A0879BF7D077F011207F9800FE50BFB59
:10025B007A007518027D077F011207D5E51F64042C
:10026B007015E5226401700F7BFF7A0879BF7D0161
:10027B007F021207F9800FE50CFB7A007518027DDF
:10028B00017F021207D5E51F64057015E522640195
:10029B00700F7BFF7A0879BF7D047F021207F9800C
:1002AB000FE50DFB7A007518027D047F021207D54E
:1002BB00E4F50E0202C1E4FD7F8E1205EDE5097532
:1002CB00F00A120383C454F0FFE50975F00A120318
:1002DB0083AEF0EF2EFD7F8C1205EDE50A75F00A6B
:1002EB00120383C454F0FFE50A75F00A120383AEC0
:1002FB00F0EF2EFD7F881205EDE50B75F00A12036A
:10030B0083C454F0FFE50B75F00A120383AEF0EFD4
:10031B002EFD7F861205EDE50C75F00A120383C4E2
:10032B0054F0FFE50C75F00A120383AEF0EF2EFDCF
:10033B007F841205EDE50D75F00A120383C454F0AA
:10034B00FFE50D75F00A120383AEF0EF2EFD7F82F1
:10035B001205EDE50E75F00A120383C454F0FFE5A8
:10036B000E75F00A120383AEF0EF2EFD7F8012059F
:10037B00ED7DC87F8E0205EDC2D530F707B2D56390
:10038B00F0FF05F030E70CB2D5F4048463F0FF0501
:10039B00F080018430D502F40422BB010CE58229E4
:1003AB00F582E5833AF583E0225006E92582F8E6EB
:1003BB0022BBFE06E92582F8E222E58229F582E5D9
:1003CB00833AF583E49322EF8DF0A4A8F0CF8CF061
:1003DB00A428CE8DF0A42EFE22BC000BBE0029EF6C
:1003EB008DF084FFADF022E4CCF875F008EF2FFF11
:1003FB00EE33FEEC33FCEE9DEC984005FCEE9DFEDF
:10040B000FD5F0E9E4CEFD22EDF8F5F0EE8420D225
:10041B001CFEADF075F008EF2FFFED33FD40079894
:10042B005006D5F0F222C398FD0FD5F0EA227BFFE0
:10043B007A0879B57D0C7F011207F97BFF7A087971
:10044B00BA7D0C7F021207F9E520FB7A00751801C3
:10045B007D107F011207D5E51FFB7A007518017D12
:10046B00107F021207D5D2A31204D0E509FB7A0044
:10047B007518027D017F011207D5E50AFB7A00751D
:10048B0018027D047F011207D5E50BFB7A00751866
:10049B00027D077F011207D5E50CFB7A0075180268
:1004AB007D017F021207D5E50DFB7A007518027DE1
:1004BB00047F021207D5E50EFB7A007518027D0743
:1004CB007F020207D57F801206508F11E511C454AD
:1004DB000F75F00AA4FFE511540F2FF50E7F821252
:1004EB0006508F13E513C4540F75F00AA4FFE513E0
:1004FB00540F2FF50D7F841206508F12E512C45442
:10050B000F75F00AA4FFE512540F2FF50C7F86121E
:10051B0006508F0FE50FC4540F75F00AA4FFE50FBB
:10052B00540F2FF50B7F881206508F08E508C45423
:10053B000F75F00AA4FFE508540F2FF50A7F8C12F4
:10054B0006508F10E510C4540F75F00AA4FFE51088
:10055B00540F2FF50922787FE4F6D8FD758123021D
:10056B0005A80206AEE493A3F8E493A34003F68038
:10057B0001F208DFF48029E493A3F85407240CC894
:10058B00C333C4540F4420C8834004F4568001463F
:10059B00F6DFE4800B01020408102040809008ACC9
:1005AB00E47E019360BCA3FF543F30E509541FFE6A
:1005BB00E493A360010ECF54C025E060A840B8E4DB
:1005CB0093A3FAE493A3F8E493A3C8C582C8CAC55E
:1005DB0083CAF0A3C8C582C8CAC583CADFE9DEE7F0
:1005EB0080BEA907E4FBD2B5EBC39408748094805A
:1005FB0050227E007401A803088005C333CE33CE8E
:10060B00D8F9FFE9F582EF558224FF92B4D2B6C236
:10061B00B60B80D4E4FBEBC3940874809480502217
:10062B007E007401A803088005C333CE33CED8F9FE
:10063B00FFEDF582EF558224FF92B4D2B6C2B60B12
:10064B0080D4C2B522AD07E4F9D2B5430501FBEB6B
:10065B00C394087480948050227E007401A8030810
:10066B008005C333CE33CED8F9FFEDF582EF55823B
:10067B0024FF92B4C2B6D2B60B80D4E4FBEBC39486
:10068B0008748094805017D2B6C2B630B40DA8034C
:10069B007401088002C333D8FC42010B80DFC2B562
:1006AB00AF012212088112086D1200031202C17BE6
:1006BB00FF7A0879C27D017F011207F97BFF7A0867
:1006CB0079C97D017F021207F91207738F23120775
:1006DB00A48F21E52364017015AF20FEEF70057523
:1006EB002001800AEF64014E7004F520F51FE52010
:1006FB001460080470D312043980CE12000E80C926
:10070B00C0E0C0D075D000C007758A18758CFC0589
:10071B001EE51E7002051DC394F4E51D94014010E7
:10072B00E5227F0070027F018F22751D00751E0070
:10073B00D007D0D0D0E032EF24FFFDEE34FFFC7FAA
:10074B000A8E198F1A8C1B8D1C7F017E00E4FBEB2C
:10075B00C3951CE51B6480F8748098500AAC19ADE6
:10076B001A1203D20B80E822E4F5142096147F149E
:10077B00FE80072096097F147E0012085880F475BE
:10078B00140120A411800320A4097F147E001208F9
:10079B005880F4751402AF1422E4F51420A0147FD2
:1007AB0014FE800720A0097F147E0012085880F4E5
:1007BB0075140120A111800320A1097F147E001262
:1007CB00085880F4751402AF14228A168B1712087E
:1007DB003AAA18EAFF7E00D3940074809480400DEF
:1007EB00120742AC16AD1712081C1A80E6228B14A6
:1007FB008A15891612083AE4FDAB14AA15A9168DB1
:10080B00827583001203A5FF60061208300D80E984
:10081B0022CFCDCFCECCCE1203E47C007D0A1203C7
:10082B00E4ED2430FFD2A6120893C2A7020899AEBA
:10083B0007EEFB7A0064017004ED148009EB64028F
:10084B004A7009ED243F4480FF1208A222EF1FAC2F
:10085B000670011E4C600A7D027CEFDCFEDDFC8025
:10086B00EC227F381208A27F0C1208A27F06120816
:10087B00A27F010208A2758901C28DD28C758A18DC
:10088B00758CFCD2A9D2AF22C2A58F80D2A77F02D2
:10089B007EEFDEFEDFFC22C2A6120893C2A702087F
:1008AB00990609170102020200004D4F44450053FF
:1008BB00454C450020200020202D20202D002020FD
:0508CB003A20203A0074
:00000001FF
